{
  "contractName": "Voting",
  "abi": [
    {
      "inputs": [],
      "stateMutability": "nonpayable",
      "type": "constructor"
    },
    {
      "inputs": [
        {
          "internalType": "uint256",
          "name": "",
          "type": "uint256"
        }
      ],
      "name": "candidates",
      "outputs": [
        {
          "internalType": "uint256",
          "name": "id",
          "type": "uint256"
        },
        {
          "internalType": "string",
          "name": "name",
          "type": "string"
        },
        {
          "internalType": "uint256",
          "name": "voteCount",
          "type": "uint256"
        }
      ],
      "stateMutability": "view",
      "type": "function"
    },
    {
      "inputs": [],
      "name": "candidatesCount",
      "outputs": [
        {
          "internalType": "uint256",
          "name": "",
          "type": "uint256"
        }
      ],
      "stateMutability": "view",
      "type": "function"
    },
    {
      "inputs": [],
      "name": "owner",
      "outputs": [
        {
          "internalType": "address",
          "name": "",
          "type": "address"
        }
      ],
      "stateMutability": "view",
      "type": "function"
    },
    {
      "inputs": [
        {
          "internalType": "address",
          "name": "",
          "type": "address"
        }
      ],
      "name": "voters",
      "outputs": [
        {
          "internalType": "bool",
          "name": "",
          "type": "bool"
        }
      ],
      "stateMutability": "view",
      "type": "function"
    },
    {
      "inputs": [
        {
          "internalType": "string",
          "name": "_name",
          "type": "string"
        }
      ],
      "name": "addCandidate",
      "outputs": [],
      "stateMutability": "nonpayable",
      "type": "function"
    },
    {
      "inputs": [
        {
          "internalType": "uint256",
          "name": "_candidateId",
          "type": "uint256"
        }
      ],
      "name": "vote",
      "outputs": [],
      "stateMutability": "nonpayable",
      "type": "function"
    }
  ],
  "bytecode": "0x608060405234801561001057600080fd5b50600380546001600160a01b0319163317905560408051808201909152600b81526a43616e646964617465203160a81b602082015261004e9061007e565b60408051808201909152600b81526a21b0b73234b230ba32901960a91b60208201526100799061007e565b610259565b6003546001600160a01b031633146100b15760405162461bcd60e51b81526004016100a8906101b5565b60405180910390fd5b600280549060006100c183610232565b9091555050604080516060810182526002548082526020808301858152600084860181905292835282825293909120825181559251805192939261010b926001850192019061011c565b506040820151816002015590505050565b828054610128906101f7565b90600052602060002090601f01602090048101928261014a5760008555610190565b82601f1061016357805160ff1916838001178555610190565b82800160010185558215610190579182015b82811115610190578251825591602001919060010190610175565b5061019c9291506101a0565b5090565b5b8082111561019c57600081556001016101a1565b60208082526022908201527f4f6e6c7920746865206f776e65722063616e206164642063616e646964617465604082015261399760f11b606082015260800190565b60028104600182168061020b57607f821691505b6020821081141561022c57634e487b7160e01b600052602260045260246000fd5b50919050565b600060001982141561025257634e487b7160e01b81526011600452602481fd5b5060010190565b610673806102686000396000f3fe608060405234801561001057600080fd5b50600436106100625760003560e01c80630121b93f146100675780632d35a8a21461007c5780633477ee2e1461009a578063462e91ec146100bc5780638da5cb5b146100cf578063a3ec138d146100e4575b600080fd5b61007a61007536600461047a565b610104565b005b6100846101a8565b6040516100919190610559565b60405180910390f35b6100ad6100a836600461047a565b6101ae565b60405161009193929190610562565b61007a6100ca3660046103d9565b610259565b6100d76102ee565b6040516100919190610492565b6100f76100f23660046103ab565b6102fd565b60405161009191906104a6565b3360009081526001602052604090205460ff161561013d5760405162461bcd60e51b8152600401610134906104b1565b60405180910390fd5b60008111801561014f57506002548111155b61016b5760405162461bcd60e51b81526004016101349061052a565b336000908152600160208181526040808420805460ff191690931790925583835282905281206002018054916101a083610600565b919050555050565b60025481565b600060208190529081526040902080546001820180549192916101d0906105c5565b80601f01602080910402602001604051908101604052809291908181526020018280546101fc906105c5565b80156102495780601f1061021e57610100808354040283529160200191610249565b820191906000526020600020905b81548152906001019060200180831161022c57829003601f168201915b5050505050908060020154905083565b6003546001600160a01b031633146102835760405162461bcd60e51b8152600401610134906104e8565b6002805490600061029383610600565b909155505060408051606081018252600254808252602080830185815260008486018190529283528282529390912082518155925180519293926102dd9260018501920190610312565b506040820151816002015590505050565b6003546001600160a01b031681565b60016020526000908152604090205460ff1681565b82805461031e906105c5565b90600052602060002090601f0160209004810192826103405760008555610386565b82601f1061035957805160ff1916838001178555610386565b82800160010185558215610386579182015b8281111561038657825182559160200191906001019061036b565b50610392929150610396565b5090565b5b808211156103925760008155600101610397565b6000602082840312156103bc578081fd5b81356001600160a01b03811681146103d2578182fd5b9392505050565b600060208083850312156103eb578182fd5b823567ffffffffffffffff80821115610402578384fd5b818501915085601f830112610415578384fd5b81358181111561042757610427610627565b604051601f8201601f191681018501838111828210171561044a5761044a610627565b6040528181528382018501881015610460578586fd5b818585018683013790810190930193909352509392505050565b60006020828403121561048b578081fd5b5035919050565b6001600160a01b0391909116815260200190565b901515815260200190565b60208082526017908201527f596f75206861766520616c726561647920766f7465642e000000000000000000604082015260600190565b60208082526022908201527f4f6e6c7920746865206f776e65722063616e206164642063616e646964617465604082015261399760f11b606082015260800190565b60208082526015908201527424b73b30b634b21031b0b73234b230ba329024a21760591b604082015260600190565b90815260200190565b600084825260206060818401528451806060850152825b8181101561059557868101830151858201608001528201610579565b818111156105a65783608083870101525b5060408401949094525050601f91909101601f19160160800192915050565b6002810460018216806105d957607f821691505b602082108114156105fa57634e487b7160e01b600052602260045260246000fd5b50919050565b600060001982141561062057634e487b7160e01b81526011600452602481fd5b5060010190565b634e487b7160e01b600052604160045260246000fdfea2646970667358221220348f9185e60c6f5b9a83605b3fc4a3978bda2b24224308d36ab47f2b2fd99da764736f6c63430008000033",
  "immutableReferences": {},
  "source": "// SPDX-License-Identifier: MIT\r\npragma solidity ^0.8.0;\r\n\r\ncontract Voting {\r\n    struct Candidate {\r\n        uint id;\r\n        string name;\r\n        uint voteCount;\r\n    }\r\n\r\n    mapping(uint => Candidate) public candidates;\r\n    mapping(address => bool) public voters;\r\n    uint public candidatesCount;\r\n    address public owner; // Declare the owner variable\r\n\r\n    constructor() {\r\n        owner = msg.sender; // Set the owner to the address that deploys the contract\r\n        addCandidate(\"Candidate 1\");\r\n        addCandidate(\"Candidate 2\");\r\n    }\r\n\r\n    function addCandidate(string memory _name) public {\r\n        require(msg.sender == owner, \"Only the owner can add candidates.\"); // Check if the sender is the owner\r\n        candidatesCount++;\r\n        candidates[candidatesCount] = Candidate(candidatesCount, _name, 0);\r\n    }\r\n\r\n    function vote(uint _candidateId) public {\r\n        require(!voters[msg.sender], \"You have already voted.\");\r\n        require(_candidateId > 0 && _candidateId <= candidatesCount, \"Invalid candidate ID.\");\r\n\r\n        voters[msg.sender] = true;\r\n        candidates[_candidateId].voteCount++;\r\n    }\r\n}",
  "sourcePath": "C:\\Users\\sy300\\Desktop\\Secure-Voting-System\\contracts\\Voting.sol",
  "compiler": {
    "name": "solc",
    "version": "0.8.0+commit.c7dfd78e.Emscripten.clang"
  },
  "schemaVersion": "3.4.16",
  "updatedAt": "2025-02-21T04:05:39.985Z",
  "devdoc": {
    "kind": "dev",
    "methods": {},
    "version": 1
  },
  "userdoc": {
    "kind": "user",
    "methods": {},
    "version": 1
  }
}