{
  "contractName": "Voting",
  "abi": [
    {
      "inputs": [],
      "stateMutability": "nonpayable",
      "type": "constructor"
    },
    {
      "inputs": [
        {
          "internalType": "uint256",
          "name": "",
          "type": "uint256"
        }
      ],
      "name": "candidates",
      "outputs": [
        {
          "internalType": "uint256",
          "name": "id",
          "type": "uint256"
        },
        {
          "internalType": "string",
          "name": "name",
          "type": "string"
        },
        {
          "internalType": "uint256",
          "name": "voteCount",
          "type": "uint256"
        }
      ],
      "stateMutability": "view",
      "type": "function"
    },
    {
      "inputs": [],
      "name": "candidatesCount",
      "outputs": [
        {
          "internalType": "uint256",
          "name": "",
          "type": "uint256"
        }
      ],
      "stateMutability": "view",
      "type": "function"
    },
    {
      "inputs": [],
      "name": "owner",
      "outputs": [
        {
          "internalType": "address",
          "name": "",
          "type": "address"
        }
      ],
      "stateMutability": "view",
      "type": "function"
    },
    {
      "inputs": [
        {
          "internalType": "address",
          "name": "",
          "type": "address"
        }
      ],
      "name": "voters",
      "outputs": [
        {
          "internalType": "bool",
          "name": "",
          "type": "bool"
        }
      ],
      "stateMutability": "view",
      "type": "function"
    },
    {
      "inputs": [
        {
          "internalType": "string",
          "name": "_name",
          "type": "string"
        }
      ],
      "name": "addCandidate",
      "outputs": [],
      "stateMutability": "nonpayable",
      "type": "function"
    },
    {
      "inputs": [
        {
          "internalType": "uint256",
          "name": "_candidateId",
          "type": "uint256"
        }
      ],
      "name": "vote",
      "outputs": [],
      "stateMutability": "nonpayable",
      "type": "function"
    }
  ],
  "bytecode": "0x608060405234801562000010575f80fd5b503360035f6101000a81548173ffffffffffffffffffffffffffffffffffffffff021916908373ffffffffffffffffffffffffffffffffffffffff160217905550620000976040518060400160405280600b81526020017f43616e6469646174652031000000000000000000000000000000000000000000815250620000e360201b60201c565b620000dd6040518060400160405280600b81526020017f43616e6469646174652032000000000000000000000000000000000000000000815250620000e360201b60201c565b62000652565b60035f9054906101000a900473ffffffffffffffffffffffffffffffffffffffff1673ffffffffffffffffffffffffffffffffffffffff163373ffffffffffffffffffffffffffffffffffffffff161462000175576040517f08c379a00000000000000000000000000000000000000000000000000000000081526004016200016c9062000271565b60405180910390fd5b60025f8154809291906200018990620002c7565b9190505550604051806060016040528060025481526020018281526020015f8152505f8060025481526020019081526020015f205f820151815f01556020820151816001019081620001dc91906200056e565b506040820151816002015590505050565b5f82825260208201905092915050565b7f4f6e6c7920746865206f776e65722063616e206164642063616e6469646174655f8201527f732e000000000000000000000000000000000000000000000000000000000000602082015250565b5f62000259602283620001ed565b91506200026682620001fd565b604082019050919050565b5f6020820190508181035f8301526200028a816200024b565b9050919050565b7f4e487b71000000000000000000000000000000000000000000000000000000005f52601160045260245ffd5b5f819050919050565b5f620002d382620002be565b91507fffffffffffffffffffffffffffffffffffffffffffffffffffffffffffffffff820362000308576200030762000291565b5b600182019050919050565b5f81519050919050565b7f4e487b71000000000000000000000000000000000000000000000000000000005f52604160045260245ffd5b7f4e487b71000000000000000000000000000000000000000000000000000000005f52602260045260245ffd5b5f60028204905060018216806200038f57607f821691505b602082108103620003a557620003a46200034a565b5b50919050565b5f819050815f5260205f209050919050565b5f6020601f8301049050919050565b5f82821b905092915050565b5f60088302620004097fffffffffffffffffffffffffffffffffffffffffffffffffffffffffffffffff82620003cc565b620004158683620003cc565b95508019841693508086168417925050509392505050565b5f819050919050565b5f62000456620004506200044a84620002be565b6200042d565b620002be565b9050919050565b5f819050919050565b620004718362000436565b6200048962000480826200045d565b848454620003d8565b825550505050565b5f90565b6200049f62000491565b620004ac81848462000466565b505050565b5b81811015620004d357620004c75f8262000495565b600181019050620004b2565b5050565b601f8211156200052257620004ec81620003ab565b620004f784620003bd565b8101602085101562000507578190505b6200051f6200051685620003bd565b830182620004b1565b50505b505050565b5f82821c905092915050565b5f620005445f198460080262000527565b1980831691505092915050565b5f6200055e838362000533565b9150826002028217905092915050565b620005798262000313565b67ffffffffffffffff8111156200059557620005946200031d565b5b620005a1825462000377565b620005ae828285620004d7565b5f60209050601f831160018114620005e4575f8415620005cf578287015190505b620005db858262000551565b8655506200064a565b601f198416620005f486620003ab565b5f5b828110156200061d57848901518255600182019150602085019450602081019050620005f6565b868310156200063d578489015162000639601f89168262000533565b8355505b6001600288020188555050505b505050505050565b610d0a80620006605f395ff3fe608060405234801561000f575f80fd5b5060043610610060575f3560e01c80630121b93f146100645780632d35a8a2146100805780633477ee2e1461009e578063462e91ec146100d05780638da5cb5b146100ec578063a3ec138d1461010a575b5f80fd5b61007e600480360381019061007991906104cd565b61013a565b005b610088610293565b6040516100959190610507565b60405180910390f35b6100b860048036038101906100b391906104cd565b610299565b6040516100c7939291906105aa565b60405180910390f35b6100ea60048036038101906100e59190610712565b610344565b005b6100f4610447565b6040516101019190610798565b60405180910390f35b610124600480360381019061011f91906107db565b61046c565b6040516101319190610820565b60405180910390f35b60015f3373ffffffffffffffffffffffffffffffffffffffff1673ffffffffffffffffffffffffffffffffffffffff1681526020019081526020015f205f9054906101000a900460ff16156101c4576040517f08c379a00000000000000000000000000000000000000000000000000000000081526004016101bb90610883565b60405180910390fd5b5f811180156101d557506002548111155b610214576040517f08c379a000000000000000000000000000000000000000000000000000000000815260040161020b906108eb565b60405180910390fd5b6001805f3373ffffffffffffffffffffffffffffffffffffffff1673ffffffffffffffffffffffffffffffffffffffff1681526020019081526020015f205f6101000a81548160ff0219169083151502179055505f808281526020019081526020015f206002015f81548092919061028b90610936565b919050555050565b60025481565b5f602052805f5260405f205f91509050805f0154908060010180546102bd906109aa565b80601f01602080910402602001604051908101604052809291908181526020018280546102e9906109aa565b80156103345780601f1061030b57610100808354040283529160200191610334565b820191905f5260205f20905b81548152906001019060200180831161031757829003601f168201915b5050505050908060020154905083565b60035f9054906101000a900473ffffffffffffffffffffffffffffffffffffffff1673ffffffffffffffffffffffffffffffffffffffff163373ffffffffffffffffffffffffffffffffffffffff16146103d3576040517f08c379a00000000000000000000000000000000000000000000000000000000081526004016103ca90610a4a565b60405180910390fd5b60025f8154809291906103e590610936565b9190505550604051806060016040528060025481526020018281526020015f8152505f8060025481526020019081526020015f205f820151815f015560208201518160010190816104369190610c05565b506040820151816002015590505050565b60035f9054906101000a900473ffffffffffffffffffffffffffffffffffffffff1681565b6001602052805f5260405f205f915054906101000a900460ff1681565b5f604051905090565b5f80fd5b5f80fd5b5f819050919050565b6104ac8161049a565b81146104b6575f80fd5b50565b5f813590506104c7816104a3565b92915050565b5f602082840312156104e2576104e1610492565b5b5f6104ef848285016104b9565b91505092915050565b6105018161049a565b82525050565b5f60208201905061051a5f8301846104f8565b92915050565b5f81519050919050565b5f82825260208201905092915050565b5f5b8381101561055757808201518184015260208101905061053c565b5f8484015250505050565b5f601f19601f8301169050919050565b5f61057c82610520565b610586818561052a565b935061059681856020860161053a565b61059f81610562565b840191505092915050565b5f6060820190506105bd5f8301866104f8565b81810360208301526105cf8185610572565b90506105de60408301846104f8565b949350505050565b5f80fd5b5f80fd5b7f4e487b71000000000000000000000000000000000000000000000000000000005f52604160045260245ffd5b61062482610562565b810181811067ffffffffffffffff82111715610643576106426105ee565b5b80604052505050565b5f610655610489565b9050610661828261061b565b919050565b5f67ffffffffffffffff8211156106805761067f6105ee565b5b61068982610562565b9050602081019050919050565b828183375f83830152505050565b5f6106b66106b184610666565b61064c565b9050828152602081018484840111156106d2576106d16105ea565b5b6106dd848285610696565b509392505050565b5f82601f8301126106f9576106f86105e6565b5b81356107098482602086016106a4565b91505092915050565b5f6020828403121561072757610726610492565b5b5f82013567ffffffffffffffff81111561074457610743610496565b5b610750848285016106e5565b91505092915050565b5f73ffffffffffffffffffffffffffffffffffffffff82169050919050565b5f61078282610759565b9050919050565b61079281610778565b82525050565b5f6020820190506107ab5f830184610789565b92915050565b6107ba81610778565b81146107c4575f80fd5b50565b5f813590506107d5816107b1565b92915050565b5f602082840312156107f0576107ef610492565b5b5f6107fd848285016107c7565b91505092915050565b5f8115159050919050565b61081a81610806565b82525050565b5f6020820190506108335f830184610811565b92915050565b7f596f75206861766520616c726561647920766f7465642e0000000000000000005f82015250565b5f61086d60178361052a565b915061087882610839565b602082019050919050565b5f6020820190508181035f83015261089a81610861565b9050919050565b7f496e76616c69642063616e6469646174652049442e00000000000000000000005f82015250565b5f6108d560158361052a565b91506108e0826108a1565b602082019050919050565b5f6020820190508181035f830152610902816108c9565b9050919050565b7f4e487b71000000000000000000000000000000000000000000000000000000005f52601160045260245ffd5b5f6109408261049a565b91507fffffffffffffffffffffffffffffffffffffffffffffffffffffffffffffffff820361097257610971610909565b5b600182019050919050565b7f4e487b71000000000000000000000000000000000000000000000000000000005f52602260045260245ffd5b5f60028204905060018216806109c157607f821691505b6020821081036109d4576109d361097d565b5b50919050565b7f4f6e6c7920746865206f776e65722063616e206164642063616e6469646174655f8201527f732e000000000000000000000000000000000000000000000000000000000000602082015250565b5f610a3460228361052a565b9150610a3f826109da565b604082019050919050565b5f6020820190508181035f830152610a6181610a28565b9050919050565b5f819050815f5260205f209050919050565b5f6020601f8301049050919050565b5f82821b905092915050565b5f60088302610ac47fffffffffffffffffffffffffffffffffffffffffffffffffffffffffffffffff82610a89565b610ace8683610a89565b95508019841693508086168417925050509392505050565b5f819050919050565b5f610b09610b04610aff8461049a565b610ae6565b61049a565b9050919050565b5f819050919050565b610b2283610aef565b610b36610b2e82610b10565b848454610a95565b825550505050565b5f90565b610b4a610b3e565b610b55818484610b19565b505050565b5b81811015610b7857610b6d5f82610b42565b600181019050610b5b565b5050565b601f821115610bbd57610b8e81610a68565b610b9784610a7a565b81016020851015610ba6578190505b610bba610bb285610a7a565b830182610b5a565b50505b505050565b5f82821c905092915050565b5f610bdd5f1984600802610bc2565b1980831691505092915050565b5f610bf58383610bce565b9150826002028217905092915050565b610c0e82610520565b67ffffffffffffffff811115610c2757610c266105ee565b5b610c3182546109aa565b610c3c828285610b7c565b5f60209050601f831160018114610c6d575f8415610c5b578287015190505b610c658582610bea565b865550610ccc565b601f198416610c7b86610a68565b5f5b82811015610ca257848901518255600182019150602085019450602081019050610c7d565b86831015610cbf5784890151610cbb601f891682610bce565b8355505b6001600288020188555050505b50505050505056fea264697066735822122039a8abfa5fc1def47e7bef3afab1cb050b3357e37bddad35579d18e3c20bfa8364736f6c63430008150033",
  "immutableReferences": {},
  "source": "// SPDX-License-Identifier: MIT\r\npragma solidity ^0.8.0;\r\n\r\ncontract Voting {\r\n    struct Candidate {\r\n        uint id;\r\n        string name;\r\n        uint voteCount;\r\n    }\r\n\r\n    mapping(uint => Candidate) public candidates;\r\n    mapping(address => bool) public voters;\r\n    uint public candidatesCount;\r\n    address public owner; // Declare the owner variable\r\n\r\n    constructor() {\r\n        owner = msg.sender; // Set the owner to the address that deploys the contract\r\n        addCandidate(\"Candidate 1\");\r\n        addCandidate(\"Candidate 2\");\r\n    }\r\n\r\n    function addCandidate(string memory _name) public {\r\n        require(msg.sender == owner, \"Only the owner can add candidates.\"); // Check if the sender is the owner\r\n        candidatesCount++;\r\n        candidates[candidatesCount] = Candidate(candidatesCount, _name, 0);\r\n    }\r\n\r\n    function vote(uint _candidateId) public {\r\n        require(!voters[msg.sender], \"You have already voted.\");\r\n        require(_candidateId > 0 && _candidateId <= candidatesCount, \"Invalid candidate ID.\");\r\n\r\n        voters[msg.sender] = true;\r\n        candidates[_candidateId].voteCount++;\r\n    }\r\n}",
  "sourcePath": "C:\\Users\\sy300\\Desktop\\Secure-Voting-System\\contracts\\Voting.sol",
  "compiler": {
    "name": "solc",
    "version": "0.8.21+commit.d9974bed.Emscripten.clang"
  },
  "schemaVersion": "3.4.16",
  "updatedAt": "2025-02-21T03:26:36.178Z",
  "devdoc": {
    "kind": "dev",
    "methods": {},
    "version": 1
  },
  "userdoc": {
    "kind": "user",
    "methods": {},
    "version": 1
  }
}